:100000000C94BC020C946A280C94F4020C94F40234
:100010000C94F4020C94F4020C94F4020C94F40288
:100020000C94F4020C94F4020C9410220C94CC2145
:100030000C940D230C94F4020C94F4020C94F4022E
:100040000C94F4020C94F4020C94F4020C94F40258
:100050000C94F4020C94E9220C94F4020C94F40233
:100060000C94F4020C94F4020C94F4020C94F40238
:100070000C94F4020C94F4020C94F4020C94F40228
:100080000C94F4020C94F4020C94F4020C94F40218
:100090000C94F4020C94F4020C94F4020C94F40208
:1000A0000C94F4020C94F4020C94F402AE0046009A
:1000B00035001E001F0020002100220023003A010D
:1000C0003B012B0014001A00080015001700000067
:1000D0003C013D01390004001600070009000A0038
:1000E000000011081208E10000001D001B000600BE
:1000F0001900050017054900E0002152E300E20065
:100100002C002C000000A800000029003A003B0051
:100110003C003D003E003F00240025002600270053
:100120002D002E004C002A004A001C0018000C0074
:10013000120013002F00300031004D000B000D00A5
:100140000E000F0033003400000028004B001100A7
:1001500010003600370038000000E50052004E0065
:100160002C002152E600E700E4000000500051009E
:100170004F000000400041004200430044004500A1
:100180004C00490023782478167C3A003B003C0060
:100190003D003E003F002578267820782178010038
:1001A00052000100010000002778287801000100BA
:1001B000500051004F00010000000100010001004B
:1001C0000000010001000100010001000100010028
:1001D0000100010001000100010001000000010018
:1001E0000000010001000100010001000100010008
:1001F000400041004200430044004500010001006E
:1002000001000100010001000100010001000100E6
:1002100001000100010001000100010001000100D6
:1002200000000100010001000100010001000100C7
:1002300000000100010001000100010001000100B7
:1002400001000000010001000100000001000100A8
:100250000100010001000100010001001E0F050066
:10026000047F3F1F643214643214783C1E1E140A4B
:100270000500010101010101010101020202020266
:10028000020202020303030303030303040404043E
:100290000404040505050505060606060607070706
:1002A000070708080808090909090A0A0A0B0B0BBD
:1002B0000C0C0C0D0D0D0E0E0E0F0F0F101011115A
:1002C00011121213131414151516161717181819DE
:1002D000191A1A1B1B1C1D1D1E1E1F202021222245
:1002E000232424252626272829292A2B2C2D2D2E88
:1002F0002F30313232333435363738393A3B3C3DA2
:100300003E3F404142434445464748494A4C4D4E92
:100310004F50515354555658595A5B5D5E5F616258
:1003200064656668696B6C6D6F7072737577787AE7
:100330007B7D7E8082838587888A8C8E8F91939542
:1003400096989A9C9EA0A2A3A5A7A9ABADAFB1B366
:10035000B5B7BABCBEC0C2C4C6C9CBCDCFD1D4D646
:10036000D8DBDDDFE2E4E7E9EBEEF0F3F5F8FAFDE8
:10037000FFFFAA7F55400102030C0D0E0F00070678
:1003800005040B0A09082223252628292A2C2D2FAB
:100390003032333536383A3B3D3E4042434547499B
:1003A0004A4C4E5051535557595A5C5E60626466D0
:1003B00068696B6D6F71737577797B7D7F818385DC
:1003C00087898A8C8E90929496989A9C9E9FA1A3DE
:1003D000A5A7A8AAACAEAFB1B3B4B6B8B9BBBCBE02
:1003E000BFC1C2C3C5C6C7C9CACBCCCDCED0D1D27E
:1003F000D2D3D4D5D6D7D7D8D9D9DADADBDBDBDC80
:10040000DCDCDCDCDDDDDDDDDCDCDCDCDCDBDBDB2B
:10041000DADAD9D9D8D7D7D6D5D4D3D2D2D1D0CE8B
:10042000CDCCCBCAC9C7C6C5C3C2C1BFBEBCBBB990
:10043000B8B6B4B3B1AFAEACAAA8A7A5A3A19F9E0E
:100440009C9A98969492908E8C8A89878583817FD6
:100450007D7B79777573716F6D6B696866646260B7
:100460005E5C5A5957555351504E4C4A4947454383
:1004700042403E3D3B3A3836353332302F2D2C2A20
:1004800029282625232205010980A10185031901B8
:100490002AB700150126B700950175108100C00527
:1004A0000C0901A101850419012AA002150126A049
:1004B00002950175108100C005010906A10105071B
:1004C00019E029E7150025019508750181029501BC
:1004D000750881010507190029FF150026FF009501
:1004E00006750881000508190129051500250195E3
:1004F0000575019102950175039101C009023B0048
:10050000020100A0FA090400000103010100092111
:1005100011010001224400070581030800010904BC
:100520000100010300000009211101000122320035
:1005300007058203200001120100020000000810DC
:10054000CB67231002010200011803530069006EFB
:1005500000630020005200650076002E002000326B
:100560000000000E034B0065006500620069006F2B
:10057000000000040309040011241FBECFEFDAE0DD
:10058000DEBFCDBF04B603FE18C080911204909167
:100590001304A0911404B09115048730904BA74028
:1005A000B04B59F4109212041092130410921404D8
:1005B00010921504E0E0F8E3099524E0A2E0B2E02F
:1005C00001C01D92A231B207E1F712E0A0E0B1E054
:1005D000E8EBF7E502C005900D92A230B107D9F71C
:1005E0000E9434230C94862B0C940000482F2091F9
:1005F0000E049091D50357E0291302C080E00895BE
:1006000030E0529FF001539FF00D1124EA52FC4F4D
:100610008181681306C08081481303C085818111E0
:10062000EECF2F5F3F4F2770E7CFE8EDF0E08081FE
:100630008E7F80831092E2001092DA001092E10027
:10064000A0EEB0E08C9181608C9380818F77808365
:1006500019BCA7EDB0E08C918E7F8C9380818F7E4A
:1006600080831092BE0308952091E4003091E5004C
:1006700095E6A9012091EC00822F817020FF06C031
:100680008091E80080FF06C080E008952091E80096
:1006900022FD1AC08091CB03882389F0853089F030
:1006A0008091EB0085FD0FC02091E4003091E500C2
:1006B00042175307F9F29150E1F684E0089582E081
:1006C000089583E0089581E008958091CD0387FF28
:1006D00013C08091E80082FF06C08091E8008B770C
:1006E0008093E80004C08091CB038111F2CF08957C
:1006F0008091CB038823D9F38091E80080FFF8CF65
:100700008091E8008E77ECCF982F9093E900242F0A
:10071000762F50E0891731F07091EC002091ED00B8
:100720005091F00021FD07C09F5F973071F78093D3
:10073000E90081E008953091EB003E7F3093EB00BB
:100740003091ED003D7F3093ED003091EB00316052
:100750003093EB007093EC002093ED005093F00089
:100760002091EE0027FDE0CF80E00895B0E0A0E00A
:10077000ECEBF3E00C949029C8EDD0E088818F7EFB
:100780008883E7EDF0E080818160808384E082BF30
:1007900081E08093BE0388818E7F888302EE10E023
:1007A000F80110821092DA0081EEC82ED12CF601E9
:1007B000108288818F778883888180688883888188
:1007C0008F7D888319BC1092CB031092CC031092BA
:1007D000CA031092C90390EEE92EF12CF701808133
:1007E0008B7F808388818160888342E060E080E045
:1007F0000E948403F60180818E7F8083F8018081CE
:1008000081608083808188608083F70180818E7F12
:100810008083888180618883CDB7DEB7E8E00C945F
:10082000AC29FC018091D3039091D40386179707DC
:10083000A0F06115710529F49091E8009E779093DE
:10084000E80090E06115710551F4911108C08091A4
:10085000E80082FF34C080E00895BC01F2CF8091AF
:10086000CB038823C1F18530C1F18091E80083FD7D
:1008700030C08091E80082FDEACF8091E80080FFDF
:10088000E1CF8091F3002091F200382F61157105BE
:1008900019F02830310558F091E02830310509F081
:1008A00090E02091E8002E772093E800CBCF819153
:1008B0008093F100615071092F5F3F4FE7CF809126
:1008C000CB03882341F0853041F08091E80083FF1D
:1008D000BECF81E0089582E0089583E008950895F1
:1008E000089508958091C00308959C014FB7F8942E
:1008F0008091BA039091BB03A091BC03B091BD035A
:100900004FBF821B930B08952FB7F8946091BA03E1
:100910007091BB038091BC039091BD032FBF0895DC
:100920002FB7F8948091BA039091BB03A091BC03B8
:10093000B091BD032FBF0895E6E0F2E091918913D5
:1009400003C0DF0111971C9292E0EC30F907B1F778
:100950000895A6E0B2E0EFEF90E02D91821751F0FC
:10096000EF3F19F4211101C0E92F9F5F9630A9F7DD
:10097000EF3F09F408950E2E000CFF0BEC5FFD4FC6
:1009800082830895A3E0B0E0E8ECF4E00C949629AB
:100990002091B7033091B80328173907A1F090933D
:1009A000B8038093B703E091B503F091B603309795
:1009B00051F024E029839B838A830084F185E02D14
:1009C000CE01019609952396E2E00C94B229A3E0AA
:1009D000B0E0EDEEF4E00C9496292091B303309151
:1009E000B40328173907A1F09093B4038093B3039D
:1009F000E091B503F091B603309751F023E02983DD
:100A00009B838A830084F185E02DCE0101960995B0
:100A10002396E2E00C94B2298091B003811103C0C7
:100A20008091B2030895E091B503F091B603309739
:100A300029F00190F081E02D0995089580E0089556
:100A4000FC01680F791F8FEF91E32191822728E045
:100A500030E087FF09C0880F892721503109C9F785
:100A6000E617F70791F70895880FF7CF6E9A089564
:100A700090E06623A1F086589E4FFC0120812F3F15
:100A800089F0E22FE295EF70F0E080A190E02F7006
:100A900002C0959587952A95E2F781700895875849
:100AA0009E4FEBCF80E0089590E06623E9F08658F2
:100AB0009E4FFC0180818F3FB1F0E82FE295EF70EF
:100AC000F0E041A18F7021E030E0B90102C0660F73
:100AD000771F8A95E2F7CB01962F9095942391A3E7
:100AE00092A1892B82A3089587589E4FE2CF9091BF
:100AF000AA03E92FF0E04091AB039F012F5F3F4F26
:100B00002370332742171306A9F0E455FC4F282F12
:100B10002F7780818078822B60FB87F980839F5FAD
:100B200093709093AA038091A8038F5F8093A8038A
:100B300081E0089580E008958F929F92AF92BF92D6
:100B4000EF92FF920F931F93CF93DF938430B0F512
:100B5000811135C0909180009F7790938000A09183
:100B60008600B0918700282F30E00E94772B23E089
:100B700030E040E050E00E94552B89019A018091BD
:100B80008600909187006CE070E00E94D929601780
:100B90007107C8F0C80169E070E00E94D92970931C
:100BA000890060938800DF91CF911F910F91FF9092
:100BB000EF90BF90AF909F908F90089583E09091B9
:100BC00080009068CACF8091860090918700E09065
:100BD0008600F0908700E0918600F0918700C6E0E3
:100BE000D0E0BE010E94D929060F171F211D311D1B
:100BF0004801590185E0880C991CAA1CBB1C8A95E8
:100C0000D1F7C701BE010E94D9299F0150E040E001
:100C1000260F371F411D511DC501B4010E94552BE0
:100C200049015A01E0918600F0918700CA01B9019B
:100C30000E94BD299B01AC01DF010E94422B9B0158
:100C4000AC01C501B4010E94BD292FE0969587959E
:100C5000779567952A95D1F70091860010918700C6
:100C600030E020E0061717072807390708F097CF6C
:100C7000609186007091870092CF843008F083E005
:100C80009091A7039770282F220F220F220F922BEB
:100C90009093A703987F21E009F420E09091A703A7
:100CA00020FB90F99093A7030E949C050895FA01F8
:100CB000811101C0FB0109950895E9E1F3E011827A
:100CC0008281846082830895CF92DF92EF920F93A6
:100CD0001F93CF93DF93CDB7DEB7E0970FB6F894AD
:100CE000DEBF0FBECDBF6091750180919F0380FF75
:100CF00037C0E6E7F3E09E012F5F3F4F8E010F5CA8
:100D00001F4FC901A4914A2F50E0DA01AA0FBB1F5F
:100D1000A40FB51FA15EBC4FCD90DD90EC90D90122
:100D2000CD92DD92ED929D013196A017B10751F75A
:100D300070E020917401B3E02B9F800D911D112470
:100D40000E94380EE0960FB6F894DEBF0FBECDBFFE
:100D5000DF91CF911F910F91EF90DF90CF90089589
:100D6000809176019091770123E0829FF001112418
:100D7000E15EFC4F891708F0BCCF1182108212820D
:100D80008F5F3396F7CF90919F0390FF0EC09091A5
:100D900076012091770133E0939FF0011124E15E09
:100DA000FC4F921718F00E946406089581836083B7
:100DB00042839F5F3396F5CF80919F03982F9C7F4E
:100DC00029F48370846080939F0308958C3AE8F33C
:100DD0008370886AF8CFAF92BF92DF92EF92FF9252
:100DE0000F931F93CF93DF93082F162FE901E42F62
:100DF000F0E0EF58FD4F611110C0E4915E2F4E2FCF
:100E00004983E8835A83DF91CF911F910F91FF901F
:100E1000EF90DF90BF90AF900895E62EF12C4491B3
:100E2000D42EE42FF0E026E0829FC00111242FEFA2
:100E300030E0B9010E94D929802F90E0880F991FD6
:100E400055E5569FD001579FB00D11248A1B9B0B6F
:100E5000982F990F890F5901AE18BF08AE9ED00187
:100E6000AF9EB00DBE9EB00D11245B2F189F800168
:100E70001124012F11275901A01AB10AAE9E800139
:100E8000AF9E100DBE9E100D11245901A81AB10875
:100E9000AE9CC001AF9C900DBE9C900D1124892F7B
:100EA0009927281B390B2E9FC0012F9F900D3E9F25
:100EB000900D1124E92F62307105A1F050F46115F5
:100EC000710509F49DCF6130710581F0EB2F512F31
:100ED00097CF6430710569F080F06630710509F4D0
:100EE0008FCFF4CFE42F4B2F592F8ACFE42F412FF0
:100EF00087CFEB2F542F492F83CF4B2F5D2DE12F21
:100F00007FCFA3E0B0E0E7E8F7E00C94962990915A
:100F10009F0390FF0AC09E012F5F3F4F0E94EB0688
:100F20004B8169818A810E94C3062396E2E00C947A
:100F3000B229CF93DF93EC01EFE9F3E043816281C3
:100F40008C810E9481078C818F5F8C83DF91CF9190
:100F50000895CF93DF93EC01EC81F0E0EA57FC4F6A
:100F60004491EFE9F3E0628181810E9481078C81E5
:100F70008F5F8C83DF91CF9108950F931F93CF9351
:100F8000DF93EC0110E000E09091780190171106DA
:100F900009F06CF40E9464068C8190E001968170E7
:100FA00099278C83DF91CF911F910F910895209104
:100FB0007601A801420F511D9A01220F331F240F01
:100FC000351F215E3C4F4C816091A1038091A003AD
:100FD00096959017110651F04CF0442349F040913A
:100FE000A2030E94EB060F5F1F4FCECF4423B9F33D
:100FF00040E0F7CFA3E0B0E0E0E0F8E00C94942903
:101000008C0180911E0381110AC09E012F5F3F4F0A
:101010004FEF6FEF0E94EB068A8180931E03F80169
:101020006481613069F080911E0340E0662361F0C5
:1010300040E0623011F440911E0380E060E004C0A3
:1010400060911E0340E080E00E94C306F8018481A5
:1010500090E0019663E070E00E94ED29848323967E
:10106000E4E00C94B029B0E0A0E0E9E3F8E00C94EF
:101070008C29EC014C81042F10E09801D8010E94CA
:10108000772B9B01AC010E94422B4B015C01E0E2FB
:10109000F0E0E01BF10BA5E5B0E0AC019B010E9484
:1010A000422B6B017C019F01DF010E94072A9B01FB
:1010B000AC010E944D2B9B01AC01280D391D4A1D2E
:1010C0005B1DC701B6010E94552BF22E822F90E0C6
:1010D00039E23F1520F143E0249F9001112435951A
:1010E0002795122F109500E085E5E82EEF188091E6
:1010F0007801081718F10E9464069C8181E0992309
:1011000019F0903219F48FEF80937301809173017D
:10111000890F8C83CDB7DEB7ECE00C94A82925E5C8
:1011200030E0B901681B790B9B01220F331F260F9A
:10113000371F37FFD4CF2F5F3F4FD1CF8E2D01FD0B
:101140008F2D20917601622F600F7727771F9B01EB
:10115000220F331F260F371F215E3C4F412F609116
:10116000A1030E94EB060F5FC2CFEF92FF920F9395
:101170001F93CF93DF93EC018C81811109C081E033
:101180008C8310921D0392E0909372018093710101
:10119000809176019091770123E0829FF0011124E4
:1011A000E15EFC4F891758F110E003E0609178018F
:1011B000161758F10E9464068091710120911D0359
:1011C000280F20931D0390917201980F9093720144
:1011D000191654F4022E000C330B40917801415043
:1011E000550B2417350734F08195809371018130B8
:1011F00009F41C82CDB7DEB7E6E00C94AE2911826B
:10120000108212828F5F3396CDCFE12EF12C70E0E9
:10121000C7010E94ED2920917601820F482F50E0EE
:1012200020911D03022E000C330BE216F306BCF0D6
:1012300020917201022E000C330B2E153F057CF01D
:10124000809F90011124215E3C4F4091A203609148
:10125000A1038091A0030E94EB061F5FA7CFFA01B4
:10126000EE0FFF1FE40FF51FE15EFC4F11821082AD
:101270001282F3CFB0E0A0E0E0E4F9E00C948D2915
:10128000EC018A81BB24BA9480FD02C0BB24B394D4
:10129000A09078018C81811109C081E0B8121EC034
:1012A0008FEF8A0D80931C0381E08C83F12CE12C5D
:1012B000EA14B8F00E94640680911C0391E0B91210
:1012C00054C081114DC080917801815080931C03DE
:1012D0001C82CDB7DEB7EBE00C94A92910921C0359
:1012E000E3CF009176010E0D1F2D111DC801880F4F
:1012F000991F080F191F015E1C4FF80111821082FF
:10130000128234E0C32ED12C912C80911C03890DC4
:10131000813114F18F70082E000C990B8E159F05EA
:1013200091F48091A2038C9DA0018D9D500D1124FC
:10133000559547955595479598016091A1038091E2
:10134000A0030E94EB069B0CF1E0CF1AD108E9F64E
:101350008FEFE81AF80AACCF87FFDDCF8A0DDBCF1D
:10136000815080931C03BC82B4CF90E001966091C1
:10137000780170E00E94ED2980931C038C83A9CF33
:10138000EF92FF921F93CF93DF93EC0110E0EE24D6
:10139000EA94F12C60917801161770F00E946406AF
:1013A0009A818C8190FF27C08F5F8C83DF91CF91D2
:1013B0001F91FF90EF90089520917601422F410FE9
:1013C0005527551FCA019A01220F331F280F391FB5
:1013D000215E3C4F70E0C7010E94ED29962F8C8161
:1013E0004091A2036091A103199F800D11240E94D6
:1013F000EB061F5FCFCF8150D8CF80E0089581E00A
:10140000809311030895F894E82FE295EF70F0E0CF
:1014100031A1282F2F7081E090E001C0880F2A951C
:10142000EAF7982F9095932391A392A1892B82A3F9
:10143000789408950F931F938091B003882329F027
:101440000E9484041F910F9108950E9484040091CA
:10145000B2021091B3022091B4023091B502600F34
:10146000711F821F931FEECF8091B003882319F064
:101470000E94900408950E941A0ACB010895909149
:10148000D40292FF10C041E0282F2471243009F0CB
:1014900040E031E0282F2871283009F030E0431770
:1014A00011F02CE0822793FF10C041E0282F247117
:1014B000243109F040E031E0282F2871283109F06B
:1014C00030E0431711F02CE082273091D50230FF35
:1014D00010C051E0282F2171213009F050E041E087
:1014E000282F2871283009F040E0541711F029E026
:1014F000822731FF10C041E0282F2171213109F0EE
:1015000040E031E0282F2871283109F030E04317FE
:1015100011F029E0822794FD877E08958238910595
:10152000B9F1B0F48133910509F47DC048F48932F2
:10153000910509F46DC08A32910509F47BC00895C4
:101540008533910509F45FC08933910509F1089548
:10155000833E9105D9F138F4803E910529F1823E10
:10156000910579F10895863E9105D9F1873E91055F
:1015700009F43EC0843E910541F52091D50221FF3A
:1015800024C08091D40284FD19C087EE90E00895B4
:101590002091D402237009F05AC02091D50223FF74
:1015A00014C089E290E008952091D40220FD38C053
:1015B0003091D50230FF09C024FF43C090E080E0A5
:1015C00008952091D40222FDF7CF08952091D402EE
:1015D00022FD3AC03091D50230FD39C024FFF5CF4D
:1015E000EDCF2091D40223FFF0CF24FDE7CFCDCF64
:1015F0002091D40223FD2EC03091D50231FFEECFD1
:1016000084EE90E008952091D40225FFDECFC9CF6B
:101610002091D40225FD21C02091D50223FFD5CFF2
:1016200089E390E0D2CF2091D40226FFCECF8AE288
:1016300090E008952091D40226FFC7CF81E390E087
:10164000089583EE90E0089582EE90E0089580EE94
:1016500090E0089586EE90E0089585E390E0089587
:10166000972F7C30B8F46930A8F48230B0F470E081
:1016700029E0929F600D711D1124FB019CE6899F5A
:10168000E00DF11D1124EE0FFF1FE455FF4F859172
:101690009491089580E090E0089581E0FCCF1F933D
:1016A000CF93DF930E948E0AEC01C11580E5D80725
:1016B000F0F5C11580E4D80708F09CC0C03ED10504
:1016C00020F5CD3CD10508F082C0C83AD10578F4A8
:1016D000C53AD10508F073C0C130D10519F1209782
:1016E00009F1C430D105F0F4D0E0C0E01BC0C33C28
:1016F000D105D0F7C85AD0E0CC0FDD1FC257DE4F5E
:101700000990D881C02DD4640DC0C11580E2D807DE
:1017100008F0D1C0C11581E0D80708F05AC0C83E12
:10172000D10510F7CE01DF91CF911F910895C036FA
:1017300082E5D80718F5C03482E5D80708F06BC0F9
:10174000C03282E5D80708F05FC0C11582E5D8072E
:1017500008F497C02C2F2695269580E2289F9001AB
:1017600011248C2F8370C1E0D0E002C0CC0FDD1FAC
:101770008A95E2F7C22BD32BDD68D4CFC03A82E53D
:10178000D80760F4C03882E5D80708F459C0CF7193
:10179000D0E0DC2FCC27C46FD06AC4CFC03C82E538
:1017A000D80708F462C0C03E82E5D80708F09CCF95
:1017B000DC2FCC27CC27DF71C06FD06AB3CFC55ADE
:1017C000D0E0C557DE4FC881D0E0D064ABCFD06544
:1017D000A9CF8D2F0E943F0A182FCE0199270E9472
:1017E0008E0AC12FD0E0DC2FCC27CC27DF71C82B8D
:1017F000D92B98CFCE0199270E948E0ACC27DF7073
:10180000C82BD92BD06A8ECFCF71D0E0DC2FCC275C
:10181000C16FD06A87CF2C2F26952695277080E23E
:10182000289F900111248C2F8370C1E0D0E002C06A
:10183000CC0FDD1F8A95E2F7C22BD32BDC6872CF69
:101840002C2F26952695277080E2289F9001112441
:101850008C2F8370C1E0D0E002C0CC0FDD1F8A95D1
:10186000E2F7C22BD32BDA685DCF8C2F8F710E94E9
:101870003F0AC82FD0E0DC2FCC27CC27DF71D06205
:1018800051CF8C2F8F710E943F0A55E0D695C79596
:101890005A95E1F7CF70D0E0DC2FCC27282F30E02D
:1018A00084FF05C044E0220F331F4A95E1F7C22BA5
:1018B000D32BD06937CF8D2F8F710E943F0A182FFD
:1018C000CE0199270E948E0AC12FD0E0DC2FCC27B1
:1018D000CC27DF71C82BD92BD2CF8095909158029D
:1018E000982390935802089580910E049091D50307
:1018F000981301C008958F5F8770FACFB0E0A0E021
:10190000E4E8FCE00C948F297C010091D202109154
:10191000D3028091D0029091D102082B192BCFE0F5
:10192000D0E0CC24C394D12CBC2EC6010C2E02C016
:10193000880F991F0A94E2F780239123892B49F499
:10194000219790F7B12C8B2DCDB7DEB7E9E00C9441
:10195000AB29B7018C2F0E94300B0E944F0B0197CF
:1019600079F3F1CFCF93DF93EC010E947E0CBE019F
:101970000E94300B0E944F0BDF91CF9108959C3055
:1019800078F5893068F5E82FF0E089E0989FE00D60
:10199000F11D11249E2F977083E0F695E7958A95A7
:1019A000E1F7EE0FFF1FEE0FFF1FE25FFD4F50E06C
:1019B00040E080E0219130E0092E02C03695279565
:1019C0000A94E2F721703327042E01C0220F0A94F3
:1019D000EAF7822B4F5F5F4F4430510559F7089566
:1019E00080E008959C3098F5893088F5E82FF0E084
:1019F00089E0989FE00DF11D11248E2F877041E042
:101A000001C0440F8A95EAF783E0F695E7958A9539
:101A1000E1F7EE0FFF1FEE0FFF1FE25FFD4F30E01B
:101A200020E070E05191DF011197CB01022E02C03E
:101A3000969587950A94E2F781708195852784238E
:101A400085278C932F5F3F4F2430310559F7089538
:101A50009093D3028093D202089521E030E002C037
:101A6000220F331F8A95E2F7209530958091D2029C
:101A70009091D302822393230E94280D0895909180
:101A80004D028095892380934D02282F277069F499
:101A9000891759F09091D50292FF07C086958695D7
:101AA00086950E942D0D10924D02089521E030E0A0
:101AB00002C0220F331F8A95E2F78091D2029091E3
:101AC000D302822B932B0E94280D08959093D1026C
:101AD0008093D0020895FC0124812223C1F08081EB
:101AE00091810E94B20C92959F70963091F058F4BB
:101AF000925F9F70923058F4803F19F030F4883E26
:101B000030F481E008959A5FF4CF843FD1F380E010
:101B10000895883EB0F3813FD1F7F3CFA6E0B0E05F
:101B2000E4E9FDE00C94952949835A8349815A815F
:101B30009923A1F0222391F0CA010E947E0C182F54
:101B4000682F89819A810E94F20C69817A81812FA4
:101B50000E94300B2696E3E00C94B129CA010E9442
:101B6000BF0C182FF2CF90915B01992319F081FDE2
:101B700003C02E9A81E008952E98FCCF0F931F93F7
:101B8000CF93DF938B01EA019091CB03943061F501
:101B90008093E9008FEF9091E800815095FD06C099
:101BA00095ED9A95F1F700008111F5CF8091E8004D
:101BB00085FF1AC00E943403811111C08091E80092
:101BC00085FD06C08091E8008E778093E800F2CF13
:101BD000F80181918F018093F100219779F780912D
:101BE000E8008E778093E800DF91CF911F910F91ED
:101BF000089543E050E0BC0182E00E94BE0D0895CC
:101C0000CF93DF93EC0148E050E0BC0181E00E94FB
:101C1000BE0D88E0FE01A1ECB3E001900D928A9523
:101C2000E1F7DF91CF91089581E08093E00080E2B9
:101C30008093D8001092C9008FE19EE40197F1F7DC
:101C400000C0000087E090EBDC01809312049093C9
:101C50001304A0931404B093150488E19CE00FB61C
:101C6000F894A895809360000FBE90936000FFCF1A
:101C70004EB14F7B5EB15064EFB7F8949B01220FD9
:101C8000331F260F371F280F391F2817390741F434
:101C9000EFBF8FE594E00197F1F700C000000895D1
:101CA000DC016D91CD0178E05EB9000000C067FFF6
:101CB0004EB9660F000000C000C000C04EB900C0A1
:101CC0007A9591F7E2CFB0E0A0E0E9E6FEE00C946F
:101CD0008E297C015B016A018091B10201E010E074
:101CE0008A3010F40AE010E0C1E0D0E0B501C7018D
:101CF000F6010995811104C021960C171D072CF4DB
:101D0000CDB7DEB7EAE00C94AA29CC9F9001CD9F15
:101D1000300D300D112490E080E045E34A95F1F755
:101D20000000019682179307C1F7E0CF682F86E085
:101D300090E00E94EF2A08950E943D068091A7033B
:101D40000E94960E08958091A70380FD13C08160C4
:101D50008093A703813019F489E08093A7038091D1
:101D6000A7030E94960E8091A70386958695869577
:101D70000E949C05089586E090E00E94CB2A809303
:101D8000A70382FD05C08DE18093A7030E94960EF4
:101D90008091A703803220F0877088618093A70329
:101DA0009091A703892F817090FF04C0892F869599
:101DB000869586950E949C050895B0E0A0E0E3EE2C
:101DC000FEE00C948829FC016280448081E08483D9
:101DD000E6E8F3E07490E5E0F4E0E491C091A2035A
:101DE000C695C158D0E0CC0FDD1FCD2FDD27812C4B
:101DF00075E0972EAA24AA94B12C55245A94E71979
:101E0000EE2EF12C80917801881638F00E9464063D
:101E1000CDB7DEB7E0E10C94A429C82CD12C82E028
:101E2000861568F09C9CF0019D9CF00D1124E15BEF
:101E3000FC4F8091A00380838091A1038183411096
:101E400023C09C9CF0019D9CF00D1124E15BFC4F94
:101E50001382128220917601C601820F911D9C018E
:101E6000220F331F280F391F215E3C4F9C9CF0012D
:101E70009D9CF00D1124E15BFC4F428161818081CA
:101E80000E94EB068394BECF9C9C80019D9C100D0C
:101E90001124015B1C4FF80183818823F1F08150EC
:101EA0008383859DC0011124648170E00E94D9293B
:101EB000FB01FF27EA57FC4F8491E82FE719E59DC6
:101EC000C0011124B7010E94D9298091A203689F03
:101ED000B0011124F8017283BDCF0E94982AB50188
:101EE0000E94ED298C179D070CF0B4CFF2E0F61597
:101EF00098F40E94982AB5010E94ED29F801808388
:101F00000E94982A2091A1032695622F70E00E94DA
:101F1000ED29280FF80121839C9CF0019D9CF00D78
:101F20001124E15BFC4F12828091A203893C58F09E
:101F300088EC9C9CF0019D9CF00D1124E15BFC4F12
:101F40008483838387CF8431A0F784E1F2CF6091CB
:101F50009F036695669570E04BE050E086E691E061
:101F60000E94A82A892B19F481E080931A030E9409
:101F7000340A909314038093130380911B038460AD
:101F800080931B030895B0E0A0E0E9ECFFE00C941F
:101F90008C2949015A016B017C010E94DC068401F5
:101FA000A4016A2D7B2D88E090E00E94012B940112
:101FB0004A2D5B2DB601C70100E20E94312A622F33
:101FC00083E290E00E94EF2ACDB7DEB7ECE00C94FC
:101FD000A829A3E0B0E0EFEEFFE00C948F29082FD2
:101FE000E62EF42EC22E90919F0390FF41C02091C7
:101FF000A003281308C08091A103861304C0809118
:10200000A203841729F080911B03826080931B0335
:10201000E92FE695E695AE2FB0E0AA52BE4F8C911F
:10202000809319039C7F943039F59E012F5F3F4FB9
:102030004F2D6E2D802F0E94EB064B8169818A8186
:102040000E94C3060093A003E092A103F092A203B2
:10205000CC2071F020919F036091A3037091A403A1
:10206000302FA7018091A5039091A6030E94C30F72
:102070002396E9E00C94AB29823019F4F090A20386
:10208000E1CF8630A1F1893091F18931D9F6E9515A
:102090006E2F6170B62EE695F0E0EF58FC4F14916C
:1020A000D12C60917801D61618F00E946406CACF30
:1020B000D19EC001112470E00E94D929802FB11057
:1020C00014C0860F20917601622F6D0D7727771F40
:1020D0009B01220F331F260F371F215E3C4F4F2DD0
:1020E0006E2D0E94EB06D394DCCF861BEBCF022F24
:1020F000A9CFEFE9F3E0438121E1421B08F440E07E
:1021000021E0628181810E94E90F0895EFE9F3E007
:10211000438121E1420F08F44FEF21E06281818188
:102120000E94E90F0895EFE9F3E0628121E1621B6B
:1021300008F460E021E0438181810E94E90F089565
:10214000EFE9F3E0628121E1620F08F46FEF21E033
:10215000438181810E94E90F0895EFE9F3E08181D5
:1021600021E04381628188500E94E90F0895EFE9E0
:10217000F3E0818121E043816281885F0E94E90F61
:1021800008958091A303882319F081508093A303BD
:1021900020919F033091A0034091A1035091A2038D
:1021A0006091A3037091A4038091A5039091A6036D
:1021B0000E94C30F08958091A303833018F48F5FAA
:1021C0008093A30320919F033091A0034091A1032A
:1021D0005091A2036091A3037091A4038091A50381
:1021E0009091A6030E94C30F089590919F0390FFC2
:1021F0003AC09370811138C0946090939F0380918E
:102200001B03816080931B03662391F020919F0341
:102210003091A0034091A1035091A2036091A303C8
:102220007091A4038091A5039091A6030E94C30F0F
:1022300060919F036695669570E04BE050E086E6FE
:1022400091E00E94A82A892BB9F00E945D0681E0E6
:102250008093160320E04091A2036091A103809136
:10226000A0030E94E90F08958B3210F0986AC5CF41
:10227000880F880F982BC1CF0E94A70FE8CF8091BD
:102280009F0386958695815009F48AE261E00E9459
:10229000F510089580919F03869586958F5F8B3208
:1022A00008F081E061E00E94F510089590919F038D
:1022B00090FF09C096959695981728F0961718F4F0
:1022C0000E944A11089561E00E94F51008959091CE
:1022D000D50292FB222720F9281779F080FB92F98A
:1022E0009093D5026091D4027091D50284E090E081
:1022F0000E940D2B82E00E943F0D0895209158020C
:1023000080914F02282B80914E02882381F0282B48
:1023100030E086E092E0FC014191CF0141113F5F46
:10232000F2E08C309F07B9F7311110924E022093E2
:10233000040248E050E060E572E084E092E00E9430
:10234000B52A892BA9F088E0E4E0F2E0A0E5B2E04C
:1023500001900D928A95E1F7E091B503F091B603F3
:10236000309731F00280F381E02D84E092E009950E
:10237000089510925802E6E0F2E086E0DF011D9237
:102380008A95E9F790E080E00E94E70490E080E021
:102390000E94C20410924F020E947E110895AAE288
:1023A000B0E0E5EDF1E10C9495298DEC93E02091FE
:1023B000F100FC012193CF01F3E0853D9F07B9F7C0
:1023C0008091CE03833009F470C0B8F4813009F4F1
:1023D00047C0823009F4B1C08091E80083FF7EC21B
:1023E0008091CD039091CE039A3008F077C2E92F07
:1023F000F0E0E857F44D0C94012A8A3009F48CC0BF
:102400008B3009F46FC0893039F78091CD03813268
:1024100019F78091D1039091D2030297E8F6809149
:10242000E800877F8093E8008091E80082FF38C051
:102430009091F3008091F200029731F48091F100C5
:10244000813011F0863021F48091F1008093C00337
:102450008091E8008B778093E8000E946503BCCFF1
:102460008091CD03813A09F0B7CF8091E800877F52
:102470008093E8008091D1039091D203892B61F47D
:1024800068E081EC93E070E00E9411048091E80024
:102490008B778093E800A0CF60E090E080E0F3CFFE
:1024A0008091CB038111C0CF97CF8091CD03813A2A
:1024B00009F092CF8091D1039091D203892B09F03A
:1024C0008BCF8091E800877F8093E8008091E800BF
:1024D00080FFFCCF80917B018093F1008091E80028
:1024E0008E77B9CF8091CD03813209F075CF80917D
:1024F000D1039091D203892B09F06ECF8091E8002F
:10250000877F8093E8000E9465038091CF038093CA
:102510007B010E94B91160CF8091CD03813209F017
:102520005BCF8091E800877F8093E8000E9465037D
:102530008091D0038093BF034FCF8091CD03813A28
:1025400009F04ACF8091E800877F8093E80080916E
:10255000E80080FFFCCF8091BF03BECF803899F0A8
:10256000823809F0BBC18091D1038F70873008F0A9
:10257000B5C18093E9008091EB0085FB882780F945
:102580001092E90006C08091C9039091CA0391118D
:1025900082609091E800977F9093E8008093F1002B
:1025A0001092F1008091E8008E7794C1882309F49D
:1025B00082C1823009F092C18091CF03811185C11F
:1025C0008091D1038F702FEF280F263008F086C13D
:1025D0008093E9002091EB0020FF77C1933031F424
:1025E0008091EB0080628093EB006FC19091EB00D3
:1025F00090619093EB0021E030E001C0220F8A95BA
:10260000EAF72093EA001092EA008091EB008860DC
:10261000EACF811163C11091CF031F778091E3004E
:102620008078812B8093E3008091E800877F8093FE
:10263000E8000E9465038091E80080FFFCCF809154
:10264000E30080688093E30082E0111183E08093CF
:10265000CB0344C18058823008F040C18091CF0341
:102660009091D0038C3D23E09207A1F583E08A830B
:102670008AE289834FB7F894DE01139620E03EE0AA
:1026800051E2E32FF0E050935700E49120FF03C0A4
:10269000E295EF703F5FEF708E2F90E0EA30C0F070
:1026A000C7968D939D932F5F243159F74FBF80912B
:1026B000E800877F8093E8006AE270E0CE0101962F
:1026C0000E9411048091E8008B778093E80006C196
:1026D000C096E7CF4091D1035091D203292F3327E1
:1026E0002330310509F444C078F52130310509F46F
:1026F0006FC08BE390E0ECEFF4E02230310509F09D
:10270000EDC02091E800277F2093E8002091D303BB
:102710003091D4038217930708F49C0140E02115FF
:10272000310509F064C0411162C08091E80082FD6A
:10273000C9CF8091CB03882329F2853019F280918B
:10274000E80083FFF2CFBECF21323105A9F122325A
:10275000310509F0C3C04115510509F443C04130AA
:10276000510509F0BBC082E390E0E6E8F4E0C9CF90
:10277000992781309105C1F0009759F0029709F02F
:10278000ADC0E9E4F5E0E4918E2F90E0E9E4F5E0F6
:1027900007C0E3E7F5E0E4918E2F90E0E3E7F5E092
:1027A000009709F49BC0ADCFE3E6F5E0E4918E2FEE
:1027B00090E0E3E6F5E0F4CF4115510571F04130CA
:1027C000510509F08BC089E090E0E7E2F5E099CF90
:1027D00082E190E0E7E3F5E094CF89E090E0EEE07D
:1027E000F5E08FCF84E490E0E8EBF4E08ACF8091CD
:1027F000CB03882309F466CF853009F463CF809139
:10280000E80083FD5FCF8091E80082FD8ECF80914C
:10281000E80080FF84CF9091F3008091F2002115B1
:10282000310519F08830910550F041E0089709F022
:1028300040E08091E8008E778093E80070CF44916B
:102840004093F1003196215031090196E8CF80384C
:1028500009F044C08091E800877F8093E800809170
:10286000CC038093F1009ECE811138C01091CF032C
:102870001230A0F58091E800877F8093E8001093E4
:10288000CC030E946503112311F084E005C0809100
:10289000E30087FDFACF81E08093CB0342E061EC57
:1028A00081E00E94840342E261EC82E00E948403A2
:1028B0008091CB0313C08091CF03813079F481E004
:1028C000933009F080E08093CA031092E900809170
:1028D000E800877F8093E8000E9465038091E8000C
:1028E00083FF0AC08091E800877F8093E800809191
:1028F000EB0080628093EB00AA96E3E00C94B12990
:102900000E94B9112FEF84E39CE021508040904059
:10291000E1F700C0000088E19CE00FB6F894A895AC
:10292000809360000FBE90936000FFCF882321F05A
:102930000E946D0C0E947E110895882339F09091B9
:102940005802982B909358020E947E110895882374
:1029500009F44DC0823879F40E940C0581FF47C00C
:1029600089E30E94A9040E947E1189E30E949C04CD
:102970000E947E110895833859F40E940C0580FF4F
:1029800036C083E50E94A9040E947E1183E5EECF44
:10299000843859F40E940C0582FF29C087E40E9404
:1029A000A9040E947E1187E4E1CF9CEF980F913A31
:1029B000E8F290E2980F983050F4877091E001C0EF
:1029C000990F8A95EAF7892F0E946D0CD1CF9BE56C
:1029D000980F933028F490E080E00E94E704089577
:1029E000885A8B3120F490E080E00E94C204089560
:1029F000CF93C82F8823C9F08238C9F40E940C05F0
:102A000081FD13C089E30E94A9040E947E112FEF6B
:102A100087EE93E0215080409040E1F700C0000035
:102A200089E30E949C040E947E11CF91089583380F
:102A3000A1F40E940C0580FDF8CF83E50E94A90453
:102A40000E947E112FEF81EE94E021508040904053
:102A5000E1F700C0000083E5E4CF8438A1F40E94D0
:102A60000C0582FDE2CF87E40E94A9040E947E113A
:102A70002FEF81EE94E0215080409040E1F700C0BC
:102A8000000087E4CECF8CEF8C0F813A70F4E6E043
:102A9000F2E08CE092E02191C21799F18E179F0726
:102AA000D1F78C2F0E94A904BECF80E28C0F883012
:102AB00068F4C77021E030E001C0220FCA95EAF740
:102AC00080915802822B80935802ADCFEBE5EC0F3A
:102AD000E33040F4F0E0E557FE4F808190E00E9443
:102AE000E704A3CFC85ACB3108F09FCFEC2FF0E01A
:102AF000EE0FFF1FE257FE4F808191810E94C204BA
:102B000094CF8C2F0E949C040E947E11CACFA4E017
:102B1000B0E0EDE8F5E10C9495294091A1025091C7
:102B2000A2026091A3027091A4022FB7F894809141
:102B3000BA039091BB03A091BC03B091BD032FBF1A
:102B4000841B950BA60BB70B11E084369105A105EC
:102B5000B10570F10E941A0A6E5F7F4F8F4F9F4F31
:102B600069837A838B839C8380912D0190912E01C0
:102B700086589D4F40912C0150E04530510510F092
:102B800044E050E0BE016F5F7F4F0E94C22A85E0A3
:102B900090E00E941029182F882351F00E9484048D
:102BA0006093A1027093A2028093A3029093A40267
:102BB000812F2496E3E00C94B1294F925F926F929B
:102BC0007F928F929F92AF92BF92EF92FF920F935C
:102BD0001F93CF93DF937B01FB0140805180628084
:102BE00073809FB7F8948090BA039090BB03A09035
:102BF000BC03B090BD039FBF84189508A608B70812
:102C0000F4E68F169104A104B10418F4C1E0442342
:102C100029F1C82F880FDD0BFE0183E0EE0FFF1FA7
:102C20008A95E1F7EC5FFE4F8181928186589D4F36
:102C3000408150E00417150708F4A801B9010E946B
:102C4000C22ACE010E941029C82F882339F00E9481
:102C50008404F70160837183828393838C2FDF91D7
:102C6000CF911F910F91FF90EF90BF90AF909F90E9
:102C70008F907F906F905F904F900895ABE0B0E0A1
:102C8000E4E4F6E10C94942988E0EFE9F3E0DE0156
:102C9000119601900D928A95E1F780911903909118
:102CA0001A03A0911B0389879A87AB8741E08B8524
:102CB000811101C040E00BE010E09E012F5F3F4F0B
:102CC0006DEA72E088E00E94DD15811110921B030D
:102CD0002B96E4E00C94B029A1E0B0E0E2E7F6E145
:102CE0000C9494298091A70380FF18C0869586953F
:102CF0008695898341E090919502981301C040E048
:102D000001E010E09E012F5F3F4F69EA72E087E02B
:102D10000E94DD152196E4E00C94B02980E0E9CF13
:102D2000A1E0B0E0E6E9F6E10C9494290E940C05DC
:102D3000898341E090919402981301C040E001E042
:102D400010E09E012F5F3F4F65EA72E086E00E942F
:102D5000DD152196E4E00C94B0294F925F927F92AA
:102D60008F929F92AF92BF92CF92DF92EF92FF929B
:102D70000F931F93CF93DF930F92CDB7DEB7C62E7D
:102D80004A015901482E880F5508C2010E94102996
:102D9000782E882309F480C0C20133E0880F991F80
:102DA0003A95E1F7FC01EC5FFE4F438150E041159D
:102DB000510511F041E050E08C5F9E4FFC016481B1
:102DC000758166587D4FCE0101960E94C22AF4019A
:102DD00040815181628173812FB7F8948091BA0349
:102DE0009091BB03A091BC03B091BD032FBF841B86
:102DF000950BA60BB70B84369105A105B10540F4E0
:102E0000B701C8010E9420059981891709F444C0BF
:102E10000C2C000CDD08C6010E941029782E8111AF
:102E200013C0712C872D0F90DF91CF911F910F91BF
:102E3000FF90EF90DF90CF90BF90AF909F908F90DA
:102E40007F905F904F900895C60123E0880F991FEF
:102E50002A95E1F7FC01EC5FFE4F438150E0E41658
:102E6000F50608F4A7018C5F9E4FFC016481758113
:102E700066587D4FC5010E94C22AB701C8010E9451
:102E8000200599818913CDCF0E948404F4016083C9
:102E9000718382839383C6CFA701B801C5010E94C5
:102EA000C22AC0CFA8E0B0E0E8E5F7E10C9492298F
:102EB00088E0E82EF12C08E812E09E012F5F3F4FDA
:102EC00046E752E063E082E00E94AD16082F8823B7
:102ED00089F19091870280917502981759F110E05D
:102EE00090918B0280918A028917F1F0E92FF0E02E
:102EF000E258FD4F868587FB662760F99F5F9370D8
:102F000090938B02909189029F5F909389028F77B3
:102F10000E947705182F8111E3CF84E090E00E9492
:102F20001029012F082302C01111F7CF80918702C9
:102F300080937502802F2896E6E00C94AE29ACE0D1
:102F4000B0E0E5EAF7E10C9490296B018CE0E82E03
:102F5000F12C0BE712E09E012F5F3F4F41E752E05B
:102F600061E080E00E94AD16882349F09CE0FE01FC
:102F70003196A5E6B2E001900D929A95E1F79CE0BA
:102F8000E5E6F2E0D60101900D929A95E1F72C96D4
:102F9000E8E00C94AC29A4E2B0E0E1EDF7E10C9498
:102FA00088298E010F5F1F4F88E1F80111928A95E1
:102FB000E9F755E5E52E51E0F52E68016BE5462E63
:102FC00061E0562E66246394712CE5E58E2EE1E0D7
:102FD0009E2EF70181917F018F3F09F445C0F8943F
:102FE000E82FE295EF70F0E021A18F70A30102C0FD
:102FF000440F551F8A95E2F7CA01922F982B91A38F
:1030000092A18095892382A3789400C0ECE4F1E03A
:1030100021E030E0B12CA12C41914F3F09F4B4C024
:10302000A42FA295AF70B0E090968C9190E04F7075
:1030300002C0959587954A95E2F780FDA5C0C90124
:10304000A82AB92A220F331F8E169F0629F7F701E7
:10305000319780818F3F11F00E94030A50EA5A9500
:10306000F1F7F601B182A082F2E0CF0ED11C4E142E
:103070005F0409F0AECF48E150E0B80186EB92E082
:103080000E94B52A009741F028E1F801A6EBB2E0D2
:1030900001900D922A95E1F70091CF0210E0000F08
:1030A000111F09521D4F892B09F471C081E08093D3
:1030B0005D020E94900490935C0280935B02D12C8D
:1030C000C090B003CC2009F4BBC07E0129E1E20E20
:1030D000F11C8CE0F70111928A95E9F78091B10219
:1030E0008A3008F078C04FE957E1B701C8010E9463
:1030F000630E882309F493C042E557E1B701C80184
:103100000E94630E882309F48AC047E855E1B7019D
:10311000C8010E94630E882309F481C040E956E18A
:10312000B701C8010E94630E882309F478C04CE6F9
:1031300056E1B701C8010E94630E882309F46FC0ED
:103140004EE356E1B701C8010E94630E882309F4DB
:1031500066C01092B1028091CE0290E0880F991F54
:103160004CE050E0B70189529D4F0E94B52A21E002
:1031700020936402892B09F043C0C12C8C2D8D292A
:10318000A496E0E10C94A42990E080E059CFD0907F
:103190005D02DD2009F493CF80915B0290915C0287
:1031A0000E947504059708F48ACF4CE050E066EB66
:1031B00072E0C8010E94B52A892B59F08CE0E6EB39
:1031C000F2E0D80101900D928A95E1F710925D022C
:1031D00077CFD12CFBCF80915E0290915F020E944D
:1031E0007504843F914008F07ECF8091640288236B
:1031F00021F28CE0F70111928A95E9F710926402AE
:10320000A091CE02B0E0AA0FBB1FA952BD4F8CE027
:10321000FE01799601900D928A95E1F7AFCF8091EA
:10322000B1028F3F31F08F5F8093B1028A3008F492
:1032300092CF0E94900490935F0280935E02D5CF5C
:103240008CE0F801ABE7B2E001900D928A95E1F7CE
:103250006CE070E08BE792E00E94200580937A0298
:1032600088E0E8EAF3E0A8E8B2E001900D928A95E0
:10327000E1F768E070E088E892E00E942005809322
:1032800087028090900290909102A0909202B0905C
:1032900093028091600290916102A0916202B091CC
:1032A000630288169906AA06BB06B1F080926002F6
:1032B00090926102A0926202B09263020E94840422
:1032C000861A970AA80AB90A8092B2029092B302AB
:1032D000A092B402B092B502809194028093B2039E
:1032E000809195020E943D068BE0E6E9F2E0DE0166
:1032F000599601900D928A95E1F7298D822F869536
:103300008695FA8CEB8CBC8C0AA11BA11092A002B2
:10331000112309F433CF10FF0AC090919F0320FFBF
:103320001AC0916090939F0360E00E94F51011FF16
:1033300006C020E04B2D6E2D8F2D0E94E90F12FF4D
:1033400004C00023A9F00E94A70F13FF17CF81E04C
:103350008093160313CF9E7F90939F030E945D0678
:1033600080911B03816080931B030E946406DFCF62
:103370000E945D06EACF1F93CF93DF93182FEB01D6
:103380000E94F814209739F4812F0E94A714DF912E
:10339000CF911F9108958FE99FE00197F1F700C049
:1033A00000002197EFCF0F931F93CF93DF93C62F8A
:1033B000D42F022FFC0185818823A9F0609311048A
:1033C0000E9490049093100480930F04C77081E0D2
:1033D00001C0880FCA95EAF70E949D14DF91CF9132
:1033E0001F910F91089580911104681334C080914A
:1033F0000F04909110040E947504883C910558F5C3
:1034000010E21D0FCD17B9F080E28C0F883040F428
:10341000C77081E001C0880FCA95EAF70E94961430
:10342000183048F481E09D2F977001C0880F9A955D
:10343000EAF70E949D1470E060E0802F0E94BB19A3
:10344000183060F6D77081E001C0880FDA95EAF78E
:103450000E949614C3CFC77081E001C0880FCA953F
:10346000EAF7F6CFB0E0A0E0E8E3FAE10C948E29A9
:103470008C01FC018481882309F459C021E040813A
:1034800051816281738195810E948E0DEC01F8015A
:103490008581882309F4CDC4C230F8E7DF0709F439
:1034A0007DC0A0F4C11538E7D30779F1C13088E7B2
:1034B000D80709F441C0FE01E851FC47E730F105A7
:1034C00008F09BC0EE56F44D0C94012AC43098E7E6
:1034D000D90709F44FC090F1C530F8E7DF0759F775
:1034E0009091A703892F8695869586958F5F8F711A
:1034F0009770843008F060C0880F880F880F892B80
:103500008093A7038091A70321C083E00E949C0EB3
:1035100080914D02877059F0F8018581882339F038
:103520008091D50282FF03C082E00E943F0DCDB79B
:10353000DEB7EAE00C94AA2980E0E8CF8091A703E7
:10354000982F987F79F088508093A703887F91E027
:1035500009F490E08091A70390FB80F98093A70382
:103560000E94960E8091A7038695869586950E9467
:103570009C05CECF8091A703982F9695969596950A
:10358000933040F49F5F990F990F990F8770892BA3
:103590008093A7038091A7038160E0CF8091A70368
:1035A00080FF07C08E7F8093A7030E94960E80E065
:1035B000DECF0E94A30EACCF9093A703A3CF26E249
:1035C00041EE61EEC8010E94D319A2CF27E245EE79
:1035D00065EEF8CF26E241EE60EEF4CF27E245EE4D
:1035E00064EEF0CF26E241EE62EEECCF27E245EE4C
:1035F00066EEE8CF28E241E0EBCF10921104CE0155
:103600009057839708F0D3C384E090E00E94D92AB2
:103610009093D5028093D402FE01E150F047E2324C
:10362000F10520F4E756F44D0C94012A8091D40260
:1036300081608093D40295C08091D5028860809388
:10364000D5028FC08091D4028260F3CF8091D402E2
:103650008460EFCF8091D4028860EBCF8091D50257
:103660008160EDCF8091D5028260E9CF8091D40254
:103670008061DFCF8091D4028062DBCF8091D40261
:103680008064D7CF0E94B9118091D4028068D1CFD5
:103690008091D4028C60CDCF8091D5028360CFCF52
:1036A0008091D4028E7FC5CF8091D502877FC7CF0E
:1036B0008091D4028D7FBDCF8091D4028B7FB9CF12
:1036C0008091D402877FB5CF8091D5028E7FB7CF0E
:1036D0008091D5028D7FB3CF8091D4028F7EA9CF08
:1036E0008091D4028F7DA5CF8091D4028F7BA1CF12
:1036F0000E94B9118091D4028F779BCF8091D40220
:10370000837F97CF8091D5028C7F99CF8091D4020F
:1037100082FB992790F921E0922790FB82F990FB98
:1037200083F987CF8091D502982F909591708E7FE5
:10373000892B90FB81F983CF9091D402892F8F7BC5
:1037400096FF806476CF0E94B9119091D402892FA0
:1037500097FB87F980586DCF61E08EE090E00E9482
:10376000EF2A6091D4027091D50284E090E00E942B
:103770000D2B0E94B911CCCE60E0EFCF9091D40216
:10378000892F8F7E94FF806154CF9091D402892F2E
:103790008E7F90FF81604DCF9091D502892F877FDA
:1037A00093FF88604CCF85E311C385E352C38091BA
:1037B0009F0380FF1EC0282F2E7F20939F033091F0
:1037C000A0034091A1035091A2036091A3037091C3
:1037D000A4038091A5039091A6030E94C30F0E94A9
:1037E0005D0680911B03816080931B030E94640629
:1037F0008FCE816080939F0361E0869586950E94BD
:10380000F51086CE4FE351E16AE471E10E9457065C
:103810007FCE4AE451E16FE371E1F8CF4DEA50E128
:1038200067EB70E1F3CF47EB50E16DEA70E1EECF6B
:1038300043E950E160EA70E1E9CF40EA50E163E931
:1038400070E1E4CF49E750E166E870E1DFCF46E898
:1038500050E169E770E1DACF41EC50E16BED70E1E6
:10386000D5CF4BED50E161EC70E1D0CF61E081E06C
:10387000C6CF65E082E00E9456114ACE68E086E03D
:10388000FACF6EE089E0F7CF64E18FE0F4CF67E133
:1038900085E1F1CF61E088E1B2CF62E289E1EBCF6F
:1038A00061E083E2ACCF6AE285E2E5CF0E94B91124
:1038B0002FEF34E38CE0215030408040E1F700C02E
:1038C00000000E94140E6FEF7FEF90E080E00E94F6
:1038D0000D2B0E9480148091D50282FB882780F9ED
:1038E00091E089270E946711F8018581C081D1810B
:1038F000882309F44CC0CE010E947E0CF82E682F5C
:10390000CE010E94F20CBE018F2D0E94300B0E944E
:103910004F0BD82EC92FA82EF801C580B680B294BF
:103920003FE0B32280914D02877001F1DC2DCC2065
:10393000F1F0892F807F803469F080E28D0D88302E
:10394000A8F0892F807E803229F4F1E0FD1570F413
:10395000BB2061F08091D50282FF08C082E00E9406
:103960003F0D80914D028770D1E009F0D0E0FC2E30
:10397000F2942FE0F2222BE02F1508F46EC0EF2D09
:10398000F0E0E554F44D0C94012A80E0ABCFCE0179
:103990000E94BF0CF82EB7CF3C2F3F70E32EC07FA4
:1039A00019F0E29490EFE922CC20B9F0EE2069F012
:1039B00080E28D0D883010F0A11009C0809158026E
:1039C000E82AE09258020E947E118D2D44C0809119
:1039D0004F02E82AE0924F02F6CF8D2D0E94A714E5
:1039E000EE20D9F180E28D0D883010F0A11004C0D6
:1039F0008E2D0E946D0C06C0E09480914F02E8224B
:103A0000E0924F020E947E1128C08C2F8F70E82E0A
:103A1000C07FC03219F0E29480EFE822AA2059F06A
:103A200091E0A91609F47AC0CC2009F486C0BB2025
:103A300009F448C0CACF8091D50282FD3FC0CC2096
:103A4000B9F1EE2039F080915802E82AE09258024C
:103A50000E947E1180E00E94F814EF2DE850FF0BC9
:103A6000349720F40E940C050E94B30DDD23A9F0C9
:103A700080914D0280FD11C0F801158286958695D2
:103A800086950E94560DC8010E94321A80914D02FF
:103A90008695869586950E942D0D20E0F80140813F
:103AA000518162817381848195810E948E0D3FCD09
:103AB00080E00E94A714EE2081F29ACFCC20A1F0E2
:103AC000B11004C08E2D0E949D14C7CFE1E0BE123C
:103AD000C4CF80914E029E2D9823E91609F4BDCFE4
:103AE000E82AE0924E02B9CFB110B7CF8E2D0E94D6
:103AF000961490914E028E2D892329F08E2D80955B
:103B0000892380934E0280910D029E2D982309F403
:103B1000A4CFE094E822E0920D029FCFCC2029F0C0
:103B2000F5E0FB1508F499CFCDCF24E02B1508F470
:103B300094CF8E2D0E94961490CFBB20D1F339E301
:103B4000A31209C08FEF97EEE3E081509040E04070
:103B5000E1F700C000008D2D0E94A7147ECF8C2FAE
:103B600086958695837069F0813009F076CF8D2D2A
:103B70009C2F9370C11002C080E090E00E94C204AC
:103B80006CCF8D2D9C2F9370C11002C080E090E00F
:103B90000E94E70462CF8C2F837009F03FC0C110F0
:103BA0005CCF4D2D429546954770440F440F2D2D07
:103BB0002F7030E0042E02C0220F331F0A94E2F768
:103BC00090E080E0D4FE09C08FE090E002C0880F52
:103BD000991F4A95E2F780959095C695C695C37052
:103BE000C23099F078F44091D0025091D102C130A6
:103BF00039F0822B932B842395230E94660D2DCFC1
:103C0000242B352B822B932BF8CF822B932B2091B7
:103C1000D0023091D10282279327EFCF8695CC2016
:103C200011F08C2F8170882309F417CF4D2D429508
:103C300046954770440F440F2D2D2F7030E0042E11
:103C400002C0220F331F0A94E2F790E080E0D4FE16
:103C500009C08FE090E002C0880F991F4A95E2F7F3
:103C600080959095C695C695C370C23099F078F44A
:103C70004091D2025091D302C13039F0822B932B64
:103C8000842395230E94280DE8CE242B352B822BEC
:103C9000932BF8CF822B932B2091D2023091D30219
:103CA00082279327EFCFCF70CC2029F08C2F0E9452
:103CB000560D8D2D08CF8D2D0E9496148C2F0E94AD
:103CC0002D0DCBCE8D2DF2EFAF1699F1FA1570F0C8
:103CD00020EFA216D1F031EFA31691F0CC2009F419
:103CE00056C0B11072CE8C2F8F7127C093EFA916DA
:103CF00039F1E4EFAE12F2CF9091D50292FD2EC0D1
:103D00008C2F8F71CC20D9F218C0CC2069F0F4E050
:103D1000FB1508F4A2CECF7181E090E002C0880FBD
:103D2000991FCA95E2F7B8CF25E02B1508F495CE78
:103D3000F2CF8C2F8F71C110C2CF0E94560D8DCE45
:103D400090E080E0CC2009F49DCFCF7181E090E03D
:103D500002C0880F991FCA95E2F794CFCC2061F07A
:103D60008C2F8F7192FFE9CF98E0899F90011124E9
:103D7000236020934D02E1CF81E00E943F0DE1E0FE
:103D8000EB1508F06ACE82E00E943F0D66CEBB20A4
:103D900059F0893309F0DFCEFFEF27EE33E0F15021
:103DA00020403040E1F7D5CE8C2F8F7188CFC631BF
:103DB000FCE7DF0781F4809158028A7A91E009F4E8
:103DC00090E090930C028111EECC89E20E94A9044C
:103DD0000E947E119DCBC3303CE7D30709F473CD1D
:103DE00050F4C1159CE7D90709F460CDC130DC4718
:103DF00009F46FCD79CDCB35FCE7DF0709F4C5CDEC
:103E0000CC352CE7D20709F466CDCA35DC4709F07A
:103E10006BCD81E067CD809158028272FE01E05245
:103E2000F847E531F10508F05FCDE953F44D0C9406
:103E3000012AFE01E851FC47E730F10508F442CBC6
:103E4000C6312CE7D20739F780910C028111ADCC35
:103E500089E20E949C04BCCFCF93DF9380914C02F7
:103E6000807F09F04DC080914B02882309F448C03F
:103E7000E0910E045091D503C0914702D0914602C3
:103E8000609148027091490247E05E17C9F18E2F98
:103E900090E0E49FF0011124EA52FC4F2481222398
:103EA00091F1489FF001499FF00D1124DF01AA52C2
:103EB000BC4F11962C9111972C1325C02C912D13CA
:103EC00022C015962C91159721111DC012962D9187
:103ED0003C91261B370B283C3105A8F480914C02FD
:103EE0008F70806180934C02E452FC4F80818F7010
:103EF0008061808386E492E00E94321A0E94740CF2
:103F0000DF91CF910895FC013196E770BECFA4E117
:103F1000B0E0EDE8FFE10C948C298C0186E0F8011B
:103F2000DE011F9601900D928A95E1F7F8018481D8
:103F3000E58096E4A92E92E0B92E90914A02911163
:103F400028C0882319F1EE20F1F0C8010E946B0D02
:103F5000F82E8823C1F087E0F801D50101900D9279
:103F60008A95E1F780914A02813031F480914602CE
:103F7000909147020E94B20C0E942C1F8F2D6496D4
:103F8000ECE00C94A829C8010E94321AFF24F39493
:103F9000F5CFD080C18082809380F0904B02209139
:103FA000480230914902A401421B530BFF2009F43F
:103FB000D9C0483C510508F092C08823F9F290918D
:103FC000470280914C02282F207F09F056C0C91269
:103FD00014C090914602D91210C0E11048C08F70F1
:103FE000806180934C0286E492E00E94321A8091B4
:103FF0004C02F8018683F12CC1CFE11038C06C2D42
:104000008D2D0E94F6026C2D8D2D0E94F602E82E59
:104010008111F1CFDF86C88A8F8598890E94B20C02
:10402000292F22952F70243058F49F70223088F069
:10403000992399F0F8019681907F79F4FE2C9ECF18
:104040002A5F2F70223068F0C8010E94321AEF2CCC
:10405000F5CF992311F0882389F3805E883070F3BF
:10406000F3CF803F58F3815F833070F7E7CF8091C3
:104070004C02816080934C02BECFC91207C0909160
:104080004602D91203C0EE2009F48DC0C8010E9477
:104090006B0D882309F477CFEE2009F474CF80915B
:1040A0004C02803288F020914602309147023987D5
:1040B00028879B868A8690914A029C871D868E87D8
:1040C000CE0108960E94321A87E0F801A6E4B2E019
:1040D00001900D928A95E1F70E942C1F57CF909185
:1040E0004C02292F207F51F486E492E00E94321A7C
:1040F00087E0F50111928A95E9F77DCF882309F4CD
:104100003DCF809147028C1110C080914602D81299
:104110000CC0E1100AC09683C8010E94321A87E0E1
:10412000F50111928A95E9F729CFC8010E946B0D1C
:10413000882309F428CFEE2009F425CF80914C0282
:10414000803210F220914602309147023A8329834F
:104150009C828B8290914A029D831E828F83CE0126
:104160000196B0CF483C5105D0F6882309F40ECF14
:10417000FE2CEE2009F407CF809147028C1120C05D
:1041800080914602D8121CC080914C0280FD0FC065
:10419000982F907F61F08683903F31F0982F907F29
:1041A000905F8F70892B8683C8010E94321A87E046
:1041B000F801A6E4B2E001900D928A95E1F7DECE17
:1041C000C8010E946B0D81117FCF80914C028160EC
:1041D00080934C02C8010E94321AD0CEABE1B0E00D
:1041E000E4EFF0E20C9494294E8B5F8B688F798F0B
:1041F0008A8F9B8F192F911110924F021D8A86E092
:10420000FE017696DE011F9601900D928A95E1F7E8
:104210000A8D002341F021E04F85588969897A8908
:10422000C8010E948E0D0B8B1C8B87E0FE013F9610
:10423000DE01189601900D928A95E1F7CE0108965D
:104240000E94871F81112AC087E0FE013896DE0197
:10425000119601900D928A95E1F78C858823F1F0F3
:104260002091D50330E0C9010196877099274091CC
:104270000E0448171906E9F097E0929FD001939F2A
:10428000B00D1124AA52BC4FFE01319601900D923F
:104290009A95E1F78093D5030E94740C17E0809102
:1042A0000E049091D503891312C06B96E4E00C9430
:1042B000B0290E94B9111092D50310920E0487E024
:1042C000E6E4F2E0DF011D928A95E9F7E7CF819FEE
:1042D000C00111248A529C4F0E94871F882329F312
:1042E00080910E0490E001968770992780930E04C8
:1042F000D6CFA6E0B0E0EFE7F1E20C9494290E945B
:1043000090048C018091590290915A028017910774
:1043100081F019821A820E949004682F49815A8183
:10432000792F80E090E00E94EE2010935A020093D3
:1043300059022696E4E00C94B02980E09091AB03FA
:104340002091AA03291739F1E92FF0E0E455FC4F39
:10435000808187FB222720F98F779F5F937090934E
:10436000AB039091A9039F5F9093A903882349F021
:10437000813079F470E060E089EA211108C08AEAAE
:1043800006C070E060E08EE4211101C08BE40E9461
:10439000BB1981E0D3CF08951F920F920FB60F92F1
:1043A00011242F933F934F935F936F937F938F933A
:1043B0009F93AF93BF93CF93DF93EF93FF93D091EE
:1043C000E900DF708091EC00C82FC17080FDC0E86B
:1043D0001092E9008091F000877F8093F00078943C
:1043E0000E94CF111092E9008091F00088608093C4
:1043F000F000CD2BCF70C093E900FF91EF91DF91DA
:10440000CF91BF91AF919F918F917F916F915F916C
:104410004F913F912F910F900FBE0F901F901895C5
:104420001F920F920FB60F9211242F933F934F9329
:104430005F936F937F938F939F93AF93BF93EF930C
:10444000FF938091E10082FF09C08091E20082FF2A
:1044500005C08091E1008B7F8093E1008091DA00BC
:1044600080FF24C08091D80080FF20C08091DA00B6
:104470008E7F8093DA008091D90080FF9DC080E11B
:1044800089BD82E189BD09B400FEFDCF81E0809342
:10449000CB038091BE03811109C00E9415030E94C5
:1044A000B6038091E20084608093E2008091E10095
:1044B00080FF17C08091E20080FF13C08091E2006E
:1044C0008E7F8093E2008091E20080618093E20021
:1044D0008091D80080628093D80019BC85E08093D9
:1044E000CB038091E10084FF2BC08091E20084FF28
:1044F00027C080E189BD82E189BD89B5982F91707F
:1045000080FFFBCF8091D8008F7D8093D800809171
:10451000E1008F7E8093E1008091E2008F7E8093A6
:10452000E2008091E20081608093E2008091CC0300
:10453000882309F447C084E08093CB038091CB03A8
:104540008091E10083FF27C08091E20083FF23C0B8
:104550008091E100877F8093E10082E08093CB032C
:104560001092CC038091E1008E7F8093E1008091D6
:10457000E2008E7F8093E2008091E2008061809370
:10458000E20042E060E080E00E9484038091F0005D
:1045900088608093F000FF91EF91BF91AF919F9160
:1045A0008F917F916F915F914F913F912F910F90DC
:1045B0000FBE0F901F90189519BC1092CB0310924C
:1045C000BE0374CF8091E30087FD93E09093CB030B
:1045D000B5CF78941F921FB61F9211248F939F938B
:1045E000AF93BF938091BA039091BB03A091BC039A
:1045F000B091BD030196A11DB11D8093BA039093A4
:10460000BB03A093BC03B093BD03BF91AF919F9137
:104610008F911F901FBE1F9018951F921FB61F925B
:1046200011248F939F93AF93BF938091B90381110E
:1046300013C08091BA039091BB03A091BC03B091C9
:10464000BD034196A11DB11D8093BA039093BB0396
:10465000A093BC03B093BD03BF91AF919F918F9185
:104660001F901FBE1F901895CDB7DEB760970FB68D
:10467000F894DEBF0FBECDBF85B7806885BF85B714
:10468000806885BF84B7877F84BF0FB6F894A895EC
:1046900080916000886180936000109260000FBE7E
:1046A00080E890E00FB6F8948093610090936100E9
:1046B0000FBE8DEF99E090930302809302020E9457
:1046C00015030E94B6038091E20084608093E200AB
:1046D00078948091CB038823A1F01091E9001F709A
:1046E0009091EC00892F817090FD80E8182B10923A
:1046F000E9008091E80083FD0E94CF111F701093A4
:10470000E90082E084BD93E095BD9AEF97BD809368
:104710006E001092B2021092B3021092B402109284
:10472000B5028091D80080618093D8002AE12A9553
:10473000F1F700C08091D900182F117080FD04C0DE
:104740000E9415031092CB031093B00387988F98A3
:104750008FE891E00197F1F700C000008FB1881F4A
:104760008827881F8093B10380935B01882309F415
:1047700034C11092740188E0809375018091B00378
:1047800081110E942428E8EAF3E088E0DF011D920D
:104790008A95E9F780915B0191E0892780930D0369
:1047A00080915B019093100380915B0180915B018C
:1047B000811106C086E98093790184E980937A01AA
:1047C00060E080E00E94540561E080E00E945405B2
:1047D000EFE8F1E03197F1F700C0000010E08091C0
:1047E0001003181708F4FDC080915B01811127C0E8
:1047F00086E0ECE7F1E0DE011A9601900D928A95D1
:10480000E1F7FE013A96A5E5B1E0CE0140969F01A1
:1048100041914D938E179F07D9F789E0E2E8F1E0C7
:10482000DE01119601900D928A95E1F7FE01319615
:10483000ACE4B1E081918D93E217F307D9F7809151
:104840005B0196E0811190E09093CF0286E0891B96
:104850008093CE0205E511E03BE5E32E31E0F32E37
:10486000D8018D918D018F3F11F00E94030AE0164F
:10487000F106B1F70CE411E025E5E22E21E0F22E7D
:10488000F80181918F018F3F11F00E94030AE01619
:10489000F106B1F788E1E7EDF2E0DF01282F1D9284
:1048A0002A95E9F7E6EBF2E0DF011D928A95E9F738
:1048B00090E080E00E94D92A853E9E4F09F466C0B0
:1048C00065EE7EEF90E080E00E940D2B60E082E0DC
:1048D00090E00E94EF2A81E090E09093D1028093D3
:1048E000D00261E083E090E00E94EF2A60E074E192
:1048F00084E090E00E940D2B60E086E090E00E9452
:10490000EF2A60E087E090E00E94EF2A40E050E06C
:10491000BA0188E090E00E94012B60E083E290E021
:104920000E94EF2A60E08CE090E00E94EF2A60E0B5
:104930008DE090E00E94EF2A19821A821B821C826D
:104940001D821E821F82188648E050E067E170E0F9
:10495000CE0101960E94DF2A40E050E0BA018FE1CB
:1049600090E00E94012B0E94A30E83E00E949C0E07
:1049700040E050E0BA018FE090E00E94012B40E05F
:1049800050E0BA0183E190E00E94012B82E090E0C8
:104990000E94CB2A8093EF0284E090E00E94D92A03
:1049A0009093D5028093D4020E94CB17EFEFF6E7E5
:1049B00021E0E150F0402040E1F700C000000E94FB
:1049C000CB178091D70280FF1EC06FEF7FEF90E082
:1049D00080E00E940D2B0E94140E88E080937401E9
:1049E000CBCE60E0812F0E943805082F61E0812F37
:1049F0000E943805E12FF0E0E25FFC4F880F802B2A
:104A000080831F5FECCE83E090E00E94CB2A90E091
:104A10000E94660D269A2E98259A2D9882E88093FA
:104A2000800089E1809381008FEF9FEF9093870052
:104A3000809386000E94BB0E0E94BB0E8091D6021E
:104A4000811185C088E090E00E94D32A4B015C016F
:104A500083E290E00E94CB2A282F30E040E050E033
:104A600060E070E080E090E000E20E94162A2829D1
:104A700039294A295B2920939F033093A00340934F
:104A8000A1035093A2036093A3037093A4038093A4
:104A9000A5039093A60330911B03336030931B034F
:104AA0002C7F09F042C02DE220939F031092A003B7
:104AB0002FEF2093A1032093A2031092A3032DE2D2
:104AC00030E04FEF5FEF60E00E94C30F88E090E0BE
:104AD0000E94D32A6B017C0183E290E00E94CB2AE2
:104AE000282F30E040E050E060E070E080E090E0AF
:104AF0000E94162AB22FA32FF42FE52F5B019701F6
:104B00008601BC29A12BFE29E32BB0939F03A09320
:104B1000A003F093A103E093A2036093A303B092D8
:104B2000A4038093A5039093A6030E94DC060E9431
:104B30005D060E94360580919F0380FF05C060E0FE
:104B4000869586950E94F51081E08093D60280912B
:104B5000B003811102C00E9427288CE591E0909358
:104B6000B6038093B50388E1482E512C94E0692E5A
:104B7000712C8091CB0300E112E1853009F49BC0D8
:104B80000E94CB1710EFA12E12E0B12E07ED802E60
:104B900002E0902E48E053E0D401F50121913191DB
:104BA0008D919D914E175F0709F493C0281739071F
:104BB000A9F39091B003988B312CD4010D911D91E4
:104BC0004D01F501C190D1905F01C016D10679F178
:104BD000212CEE24E394F12CC026D126C6018E218F
:104BE0009F21892BD1F0F889FF23B9F029823A82DD
:104BF0000E9490049C838B8321E02D8391E0980197
:104C00002E213F21232B09F490E09E8349815A8174
:104C10006B817C818D810E94EE202394EE0CFF1C21
:104C200049E02412DBCFF5013297118300833394DE
:104C30008CE03812C2CF0E941A0A51C08091CB0377
:104C4000843041F180E00E943D0680E00E94B30D77
:104C50001092B90340E40FB6F894A8954092600012
:104C60000FBE4093600083B7817F846083BF83B7AA
:104C7000816083BF7894889583B78E7F83BF0FB69A
:104C8000F894A895809160008861809360001092EC
:104C900060000FBE8091CA03882369F00E94CB1781
:104CA000E7EDF2E081919191892B09F05FC182E0FB
:104CB000EF3EF807B9F78091CB03853009F4BECFFA
:104CC0000E94B9110E94BB0E0E940C050E94B30DF8
:104CD00057CF2817390709F06CCF0E9479218091AE
:104CE0001A03882309F465C080911903E0919F039A
:104CF000E695E695E81BE0931503823009F08EC037
:104D0000F0E0E359FD4FE4910E2F10E0F9EACF2EC9
:104D1000F7E0DF2E80911603882361F010921603CE
:104D20000E94340A90931403809313031092180383
:104D3000109217030E94340AE0911303F0911403B8
:104D40009C012E1B3F0B2F3F3F4798F520910A03F4
:104D50002223B1F010920A03209108033091090335
:104D6000821B930B8F3F9F4758F4205D3A48309346
:104D700009032093080380911B03886080931B0321
:104D8000E0901703F0901803E00FF11FF093140365
:104D9000E093130383E193E0F601099580911703F3
:104DA00090911803892B29F4EF2819F0F1E0F09382
:104DB0000A03E090B003EE2019F00E949D21E82E36
:104DC00080911103882351F0109211038091AA035E
:104DD0008093AB038091A8038093A903F12C809169
:104DE0001003F81608F486C08091B003882319F0E8
:104DF0000E949D21E82AE1100E941A0A0E940C05D7
:104E0000182F80911203181709F4B3CE10931203D0
:104E10000E948404812F0E94B30DABCE863059F4DA
:104E2000F0E0E659FD4FE4910E2F10E0E9E9CE2EB7
:104E3000E7E0DE2E6FCF893061F4E695F0E0E959C6
:104E4000FD4FE4910E2F10E070ECC72E79E0D72EC5
:104E500061CF8F3061F4E695F0E0EC59FD4FE491BD
:104E60000E2F10E06AE3C62E69E0D62E53CF8531AF
:104E700059F4F0E0EF59FD4FE4910E2F10E055EB9F
:104E8000C52E58E0D52E46CF08E210E023E3C22E0F
:104E900028E0D22E883109F43DCF833249F4EFE582
:104EA000F2E0059114914AEFC42E47E0D42E32CFA0
:104EB00004EF11E09DEBC92E97E0D92E843209F45E
:104EC00029CF853281F48E2F63E00E94CD29E92F0E
:104ED000F0E0E45AFD4FE4910E2F10E03DEDC32EBB
:104EE0003EE0D32E17CF00ED17E08FE6C82E84E00A
:104EF000D82E10CF61E08F2D0E943805182F60E06A
:104F00008F2D0E943805E12FEE0F8E2B0F2D10E014
:104F1000D801A25FBC4FEC919E2F9370891721F1AD
:104F2000EE0FEE0FE82BEC9380910D038F0DEF70D9
:104F3000F0E0EA53FE4F055F1C4FD080D8019C91F2
:104F4000D90EDC92B3E060E0BD1524F0EDEFDE1683
:104F50001CF461E00E9477058D2DDD0C990BB301E7
:104F60000E94ED29D8018C93F39439CF09BD19BD66
:104F700009B400FEFDCF8091D8008F7D8093D800CA
:104F80008091E00082608093E0008091E00081FDEC
:104F9000FCCF0E94B9118FCE8EE1489B02C0815098
:104FA000E1F7489BFECF0895589880E28A95F1F783
:104FB000589A0895FC013BE03A95F1F798E020E01B
:104FC00080E031E040E14A95F1F7880F489B02C04C
:104FD0008160232742E04A95F1F7000040E14A95BD
:104FE000F1F7915079F790E19A95F1F799B132E0A4
:104FF0003A95F1F7000040E14A95F1F79170922758
:105000002081920F90830895A1E0B0E0EAE0F8E2F9
:105010000C94922919828C017C01E60EF11C0E156C
:105020001F0541F481E09981911180E02196E6E02D
:105030000C94AE290E94CC27CE0101960E94DA275B
:10504000F80181938F01EBCF509A589A08955098A8
:10505000589AE89AE9E6F0E080818C7F8083089591
:105060006150770B91E001C0990F6A95EAF720E053
:1050700031E0911108C0222391F0589A80E28A957C
:10508000F1F758980895492F482339F0589A232763
:1050900040E24A95F1F79695ECCF5898F9CF589899
:1050A000EDCFFF920F931F93CF93DF93EC018C0111
:1050B000060F111DC017D10729F4CDB7DEB7E5E003
:1050C0000C94AF29F9900E94D42768E08F2D0E949C
:1050D0003028F0CF1F920F920FB60F9211240F932A
:1050E0001F932F933F934F935F936F937F938F9370
:1050F0009F93AF93BF93EF93FF93CF93DF930F9261
:10510000CDB7DEB719820E94CC27CE0101960E944E
:10511000DA27082F069506950695282F22952570E3
:10512000902F9570290F922F937026952695920FA8
:10513000982797708981982B09F05CC00A3008F095
:1051400059C080E18A95F1F7589A509A82E08A9581
:10515000F1F700C0589888E0089F80011124D80119
:10516000AC5FBE4F1696ED91FC9117973097A9F062
:105170006091C4017091C50114962D913C911597D1
:10518000260F371F11968D919C911297680F791FEA
:1051900013964C9113978C910995F801EC5FFE4F93
:1051A0006381662351F02091C4013091C50184814F
:1051B0009581820F931F0E9451280E94D42780E17D
:1051C0008A95F1F758985098589A80E18A95F1F7A6
:1051D000F801EC5FFE4F6081662351F02091C4011D
:1051E0003091C50181819281820F931F0E94042812
:1051F0000E94CC270F90DF91CF91FF91EF91BF914B
:10520000AF919F918F917F916F915F914F913F915E
:105210002F911F910F910F900FBE0F901F90189517
:105220000F931F93CF93DF93EC010A970CF04CC0C0
:10523000F894509A589885E08A95F1F700009C2FD1
:10524000969595708C2F8570980F892F8370969501
:10525000969523E0CC0FDD1F2A95E1F7980F8E017C
:10526000092B0E94D42700C068E0802F0E943028BC
:1052700080E18A95F1F75098589A489B1EC087E0C4
:1052800090E048991CC0FE01EC5FFE4F63816623ED
:10529000F9F02091C4013091C50184819581820F7C
:1052A000931F0E940428811113C0509A589A789431
:1052B000DF91CF911F910F91089500C0DECF01972C
:1052C00029F4509A589A789480E0F2CF00C0D9CF50
:1052D0000E94CC2780E28A95F1F75898509A80E195
:1052E0008A95F1F7CC5FDE4F6881662351F02091FB
:1052F000C4013091C50189819A81820F931F0E9458
:1053000051280E94D427789481E0D2CF2F923F92E7
:105310004F925F926F927F928F929F92AF92BF92C5
:10532000CF92DF92EF92FF920F931F93CF93DF9371
:10533000CDB7DEB7CA1BDB0B0FB6F894DEBF0FBECE
:10534000CDBF09942A88398848885F846E847D841B
:105350008C849B84AA84B984C884DF80EE80FD801D
:105360000C811B81AA81B981CE0FD11D0FB6F89493
:10537000DEBF0FBECDBFED010895DB018F939F937C
:105380000E94422BBF91AF91A29F800D911DA39FC0
:10539000900DB29F900D11240895991B79E004C0DF
:1053A000991F961708F0961B881F7A95C9F7809564
:1053B0000895AA1BBB1B51E107C0AA1FBB1FA6175C
:1053C000B70710F0A61BB70B881F991F5A95A9F7AE
:1053D00080959095BC01CD01089597FB072E16F49A
:1053E000009407D077FD09D00E94D92907FC05D089
:1053F0003EF4909581959F4F0895709561957F4FEC
:105400000895EE0FFF1F0590F491E02D09940E947E
:10541000772B332312F48A1B9B0B0C94112A0E94C6
:10542000772BB7FF0895821B930B0895002E083049
:1054300090F0982F872F762F652F542F432F322FE0
:1054400022270850F4CF220F331F441F551F661F19
:10545000771F881F991F0A95B2F7002D089597FDB1
:105460001094002E083098F00850232F342F452F29
:10547000562F672F782F892F912DF4CF159497955C
:1054800087957795679557954795379527950A9509
:10549000AAF71124002D08958F929F92AF92BF9288
:1054A000CF92DF92EF92FF92CF93DF93EC0168816E
:1054B00079818A819B81611571058105910521F4AE
:1054C00064E279ED8BE597E02DE133EF41E050E0C8
:1054D0000E94232B49015A019B01AC01A7EAB1E4C8
:1054E0000E94422B6B017C01ACEEB4EFA50194014C
:1054F0000E94502BDC01CB018C0D9D1DAE1DBF1DEC
:10550000B7FF03C00197A109B04888839983AA8394
:10551000BB839F77DF91CF91FF90EF90DF90CF908B
:10552000BF90AF909F908F9008950E944C2A08954D
:1055300080E091E00E944C2A0895B0E0A0E08093C2
:10554000000190930101A0930201B093030108951B
:10555000FC014150504030F001900616D1F73197D0
:10556000CF010895882799270895FB01DC0104C025
:105570008D910190801921F441505040C8F7881B4B
:10558000990B0895FB01DC0102C001900D9241507E
:105590005040D8F70895F999FECF92BD81BDF89A91
:1055A000992780B50895A6E1B0E044E050E00C945E
:1055B000152BA8E1B0E042E050E00C94152BDC0183
:1055C000A40FB51F4150504048F0CB01840F951FE8
:1055D0002E910E94F02A41505040D0F70895262F76
:1055E000F999FECF92BD81BDF89A019700B40216D9
:1055F00039F01FBA20BD0FB6F894FA9AF99A0FBE87
:1056000008950396272F0E94F02A0E94EF2A252F43
:105610000E94F02A242F0C94F02A0196272F0E9432
:10562000F02A0C94EF2ADC01CB01FC01F999FECFA2
:1056300006C0F2BDE1BDF89A319600B40D9241501A
:105640005040B8F70895052E97FB1EF400940E9471
:105650003A2B57FD07D00E94552B07FC03D04EF480
:105660000C943A2B50954095309521953F4F4F4FD4
:105670005F4F089590958095709561957F4F8F4FFE
:105680009F4F08950E94772BA59F900DB49F900D7A
:10569000A49F800D911D11240895B7FF0C94422BF7
:1056A0000E94422B821B930B0895A1E21A2EAA1B83
:1056B000BB1BFD010DC0AA1FBB1FEE1FFF1FA217C2
:1056C000B307E407F50720F0A21BB30BE40BF50BBF
:1056D000661F771F881F991F1A9469F76095709548
:1056E000809590959B01AC01BD01CF010895A29FCB
:1056F000B001B39FC001A39F700D811D1124911DA6
:10570000B29F700D811D1124911D0895F894FFCF53
:10571000AE12D6126E14D6126E1409132A136E141A
:1057200027143414EA1AEE1ADF1AE61AF21AF61AD5
:10573000FA1A501BC51B581B221B261B5C1B2A1B5D
:10574000601B6C1B361BBE1B3A1B701B3E1B741B65
:105750009C1B421B781BA31B481B7E1B861B2E1BFE
:10576000641B321B681B4C1B821B921BAC1BBC1B9B
:105770001C1B541BCC1BCC1CCC1C051D051DAF1DBC
:105780002D1D2D1D2D1DCB1D531E621E621ED71BF0
:10579000021C091C0E1C131C181C1D1C221C271C7F
:1057A0002C1C311C361C391C3E1C411C441C471C43
:0857B0004A1C4D1C501C531C47
:1057B8000100000000000001000000000000000CD3
:1057C80001000000000000010D00000000000008BA
:1057D8000E000000000000000000FF090416000091
:1057E80000000000011A000000000000011B00007A
:1057F800000000000B1C000000000000F4F1F0376E
:105808003392939594313267349730017204000EC5
:1058180071047004F90D01191A1B1C1D1E1F20218B
:10582800220102010010001010F5F601333236345F
:105838009730F1F0F4F5F695679337818283E200AB
:10584800E900EA00B500B600B700CD008301CC003E
:105858008A019201940121022302240225022602D0
:1058680027022A02B300B4006F0070009F01CB0129
:105878009F02A0027A0200FF0100010000FFFF0062
:1058880000010001FF0000010202020206060609EB
:1058980009090909090F0F0F0F0F0F151515181909
:1058A800191919191919191919232425252525250F
:0258B8002500C9
:00000001FF
